S0120000416374697669646164342E7372656355
S11300000C943B000C9458000C9458000C94580029
S11300100C9458000C9458000C9458000C945800FC
S11300200C9458000C9458000C9458000C948708B5
S11300300C9458000C9458000C9441080C945800EB
S11300400C9458000C9458000C94C1080C9458005B
S11300500C9458000C9458000C9458000C945800BC
S11300600C9458000C945800E60AEF0AFC0A090B99
S1130070160B210B2E0B11241FBECFEFD8E0DEBFD1
S1130080CDBF11E0A0E0B1E0E8EBFDE102C00590D6
S11300900D92A633B107D9F723E0A6E3B1E001C07E
S11300A01D92A935B207E1F70E940A0A0C94DA0EF0
S11300B00C94000090E027E1289FF001299FF00DA7
S11300C01124E85BFE4F26892431B8F427E1289FE8
S11300D0F001299FF00D1124E85BFE4F858990E023
S11300E0DF01A80FB91F6C93019664E170E00E94D0
S11300F0700E858B86898F5F868B089590E027E14B
S1130100289FF001299FF00D1124E85BFE4F2689FA
S11301102223C9F027E1289FF001299FF00D112423
S1130120E85BFE4F848990E0DF01A80FB91F2C9192
S1130130019664E170E00E94700E848B8689815080
S1130140868B822F08958FEF089590933B018093BF
S11301503A0108959093410180934001089590934A
S11301603F0180933E01089590933D0180933C01AB
S1130170089520E022C0822F90E037E1389FF001FB
S1130180399FF00D1124E85BFE4F148A158A168AF4
S1130190FC01EE0FFF1FEE0FFF1FE551FE4F108213
S11301A01182FC01E050FF4F1082880F991FFC015F
S11301B0EE5BFE4F108211822F5F2330E0F2089530
S11301C080E020C0282F30E0F901EE0FFF1FEE0F72
S11301D0FF1FE551FE4F9081992399F0F901EE0F2D
S11301E0FF1FEE0FFF1FE551FE4F9181992349F048
S11301F0220F331F220F331FF901E551FE4F915097
S113020091838F5F8330F0F20895EF92FF921F93F2
S1130210CF93DF9300D0CDB7DEB710E04CC0E12E12
S1130220F12CF701EE0FFF1FEE0FFF1FE551FE4FFC
S11302308081882351F0F701EE0FFF1FEE0FFF1F9F
S1130240E551FE4F9181911135C0882399F1F70151
S1130250EE0FFF1FEE0FFF1FE551FE4F818181114D
S113026029C0F701EE0FFF1FEE0FFF1FE551FE4FF0
S113027082818130F9F4E0914001F091410130979D
S113028069F00E2C01C0880F0A94EAF789831A8258
S113029042E0BE016F5F7F4F82E50995F701EE0FE3
S11302A0FF1FEE0FFF1FE551FE4F82E08283809116
S11302B0040181831F5F133008F4B1CF0F900F90B6
S11302C0DF91CF911F91FF90EF900895BF92CF924D
S11302D0DF92EF92FF920F931F93CF93DF9300D09F
S11302E0CDB7DEB78B01E42E813609F413C2A8F42E
S11302F0833509F4FAC040F4813509F469C008F083
S113030088C0803529F1D3C28F3509F4ADC108F016
S1130310B0C18E3509F466C1CAC2853609F44AC231
S113032030F4833609F40EC208F4FDC130C28736B6
S113033009F496C208F48DC2803F09F0B8C2DB010B
S11303408C918D3009F0B3C281E080933901AFC242
S1130350B3E0B41798F5E0E0F1E0DB0111968C917D
S11303601197808312968C911297818313968C91A6
S1130370828320E01FC0822F90E037E1389FF00194
S1130380399FF00D1124E85BFE4F148A158A168AF2
S1130390FC01EE0FFF1FEE0FFF1FE551FE4F108211
S11303A0118212821382880F991FFC01EE5BFE4FAB
S11303B010822F5F2330F8F21092EA01E0913A01A3
S11303C0F0913B01309709F472C281E009956FC244
S11303D0FB0180818D3099F481E08093EA0180E013
S11303E00CC0E82FF0E0EE0FFF1FEE0FFF1FE551EA
S11303F0FE4F1082118212828F5F833090F3E0915E
S11304003A01F0913B01309709F451C280E009951B
S11304104EC2DB018C918F3F09F049C261C0E12ECD
S1130420F12CF701EE0FFF1FEE0FFF1FE551FE4FFA
S11304308281823009F052C0F701EE0FFF1FEE0FE8
S1130440FF1FE551FE4F128210821182F701EE0F59
S1130450FF1FEE5BFE4F8081882309F428C2F70159
S1130460EE0FFF1FEE5BFE4F1082812F0E947E0075
S11304708F3F09F41CC2282F082E000C330BE21600
S1130480F30619F5E0914001F0914101309779F0BC
S113049081E090E002C0880F991F1A95E2F78983E2
S11304A08A8342E0BE016F5F7F4F82E50995F701C1
S11304B0EE0FFF1FEE0FFF1FE551FE4F81E080831B
S11304C09091050191838283F2C1123008F0EFC14B
S11304D0682F81E0810F0E945A00E9C11F5F01C0AB
S11304E010E0133008F49BCFE2C1FB0180818D3012
S11304F019F41092EA01DBC18A3009F0D8C182E014
S11305008093EA01D4C18F2D90E0F801E80FF91F20
S1130510B0800196F801E80FF91F8081813009F05D
S11305205EC0CB2CD12CF601EE0FFF1FEE0FFF1F88
S1130530E551FE4F828181114AC08B2D0E947E00BD
S11305408F3F49F4F601EE0FFF1FEE5BFE4F81E093
S11305508083B18244C0282F082E000C330BC216AE
S1130560D30661F5809137019091380101969093FB
S1130570380180933701E0914001F09141013097B7
S113058079F081E090E002C0880F991FBA94E2F7F5
S113059089838A8342E0BE016F5F7F4F82E50995BC
S11305A0F601EE0FFF1FEE0FFF1FE551FE4F81E036
S11305B08083909105019183828311C0F1E0FB1542
S11305C070F0682F81E08B0D0E945A0008C0F6017C
S11305D0EE0FFF1FEE5BFE4F81E08083B182F39448
S11305E0F39401C0F12CFE1408F48DCF60C1D8013E
S11305F09C91E62FF0E0E050FF4F8081981332C0C9
S113060080E00E945A0080914201882309F44FC17E
S11306108091ED0181114BC1109242010E947E0034
S1130620811118C0E0914001F0914101309749F0E7
S113063081E089838A8342E0BE016F5F7F4F82E558
S11306400995EBEEF1E081E08083909105019183BF
S113065082832DC18F3F09F42AC1682F81E00E9453
S11306605A0025C16F5F01C060E0633008F4BFCF5A
S11306701EC1442321F0FB01808180933401F1E009
S1130680FE1528F4D80111968C9180939701B4E05B
S1130690BE1578F5F80162810F2EF3E2EF2EF1E03A
S11306A0FF2EF02D70E080E090E00E944C0DD70109
S11306B06D937D938D939C931397F801638170E000
S11306C080E090E00E944C0DD70114966D937D93C9
S11306D08D939C931797F801648170E080E090E01B
S11306E00E944C0DD70118966D937D938D939C9326
S11306F01B9780913401813049F4809197018130B6
S113070029F41092330180939E01D1C081E080933B
S11307103301CDC0E0913E01F0913F01309709F4DF
S1130720C6C00995C4C0FB01808180930601E09195
S11307303C01F0913D01309709F4B9C0DB018C9183
S11307400995B5C0B6E0B41708F0B1C0FB018081CB
S1130750E8E0F1E08083DB0111968C9111978183AD
S113076012968C911297828313968C91139783839C
S113077014968C9114978093070115968C91159774
S11307808093050116968C918093040190C0B2E089
S1130790B41708F08CC0FB01808180930D01818126
S11307A090E0982F88272281822B90930F018093C9
S11307B00E017DC0F7E0F41708F079C0DB018C91DD
S11307C090E0A0E0B0E0BA2FA92F982F8827FB0172
S11307D02181822B80931D0190931E01A0931F0100
S11307E0B0932001828190E0A0E0B0E0BA2FA92F5D
S11307F0982F88272381822B8093190190931A01C3
S1130800A0931B01B0931C01848190E0A0E0B0E0B0
S1130810BA2FA92F982F88272581822B8093150121
S113082090931601A0931701B0931801868190E06C
S1130830A0E0B0E0BA2FA92F982F88272781822B18
S11308408093110190931201A0931301B0931401AA
S11308502EC0442361F1DB018C9180930C0127C0ED
S1130860B7E0B41720F5FB018081809310018181EA
S113087080933601828180930301838190E0909379
S11308809A0180939901848190E09093220180934E
S11308902101E0E0F1E0DB0115968C91159780834E
S11308A016968C911697818317968C9182830F905C
S11308B00F90DF91CF911F910F91FF90EF90DF90F8
S11308C0CF90BF900895CF93DF931F92CDB7DEB73B
S11308D0898341E0BE016F5F7F4F8FE50E9466010F
S11308E00F90DF91CF910895DC0111967C936E9364
S11308F013965C934E93129715963C932E931497EC
S113090016961C92169717961D921D921D921C9274
S11309101A971B961D921D921D921C921E9761158B
S1130920710519F0FB0180E009950895CF92DF92DB
S1130930EF92FF92CF93DF93FC01268121110EC029
S11309406A017B01EC010190F081E02D81E00995C1
S1130950CF82D886E986FA8681E08E83DF91CF91B3
S1130960FF90EF90DF90CF9008958F929F92AF9277
S1130970BF92CF92DF92EF92FF92CF93DF93EC017D
S11309806A017B018F819885A985BA854A015B013B
S1130990881A990AAA0ABB0A8E81813039F008F4B0
S11309A082C08230C9F08330D9F178C080910D01C2
S11309B090E0A0E0B0E088169906AA06BB0608F409
S11309C072C0E881F98180E00995CF82D886E986F2
S11309D0FA8682E08E8367C0EA81FB8109958823C9
S11309E039F0CB86DC86ED86FE8683E08E835BC0A1
S11309F080910E0190910F01A0E0B0E08816990655
S1130A00AA06BB0608F44FC01E82EC81FD81309714
S1130A1009F449C060E070E080E89FEB099543C0A9
S1130A20EA81FB81099581111BC08B859C85AD856D
S1130A30BE85A7019601281B390B4A0B5B0BCA0123
S1130A40B9010E944C0D28E23EE74CE85CE30E94A9
S1130A50030E1E82EC81FD81309729F1099523C094
S1130A608B859C85AD85BE85C81AD90AEA0AFB0A1E
S1130A7080910E0190910F01A0E0B0E0C816D90654
S1130A80EA06FB0680F01E82EC81FD81309759F066
S1130A9060E070E080E89FEB099505C0E881F9818A
S1130AA080E009951E82DF91CF91FF90EF90DF9057
S1130AB0CF90BF90AF909F908F900895CF93DF9386
S1130AC0EC01798368835B834A833D832C836115BE
S1130AD0710519F0FB01099501C080E08E83DF9157
S1130AE0CF910895CF93DF93DC01ED91FC91309782
S1130AF0E9F0EC0109959E81891302C01F8216C09A
S1130B009F819F5F9F8320910C01921778F01F8231
S1130B108E83882331F0EA81FB81309739F009957F
S1130B2005C0EC81FD81309709F00995DF91CF91E3
S1130B300895882321F08BB180688BB908958BB117
S1130B408F778BB90895882321F085B1806185B9A9
S1130B50089585B18F7E85B90895882321F085B1E4
S1130B60886085B9089585B1877F85B9089589B16D
S1130B7082958695877091E089278170089589B15F
S1130B808695869591E089278170089589B1869527
S1130B908695869591E089278170089589B182951B
S1130BA08F7091E0892781700895882321F085B1A1
S1130BB0826085B9089585B18D7F85B9089593B113
S1130BC0892F847092FD81E00895882321F088B1F3
S1130BD08E7F88B9089588B1816088B9089580931B
S1130BE0060181E080939E010895CF92DF92EF92F7
S1130BF0FF9280919E018823C9F1C0900E02D0908B
S1130C000F02E0901002F09011028091A0019091E7
S1130C10A101A091A201B091A301C81AD90AEA0ABC
S1130C20FB0AA0910601B0E020E432E44FE050E07A
S1130C300E94AC0EA70196010E94840E2F3F31053D
S1130C4019F010F02FEF30E0B90180E090E00E943D
S1130C504C0D60932F017093300180933101909378
S1130C60320181E08093330110929E018BB18F7B1E
S1130C708BB9EEE3F2E083E08083118242E0BF01AE
S1130C808EE50E945E0BFF90EF90DF90CF90089569
S1130C90EEE3F2E01082118242E0BF018EE50E9491
S1130CA05E0B0895EEE3F2E081E08083118242E07E
S1130CB0BF018EE50E945E0B0895EEE3F2E082E050
S1130CC08083118242E0BF018EE50E945E0B08958D
S1130CD0EEE3F2E0108281E0818342E0BF018EE521
S1130CE00E945E0B42E06EE372E08EE50E946601B4
S1130CF00895EEE3F2E081E08083818342E0BF0166
S1130D008EE50E945E0B42E06EE372E08EE50E9487
S1130D1066010895EEE3F2E082E0808381E081835E
S1130D2042E0BF018EE50E945E0B42E06EE372E09A
S1130D308EE50E9466010895BF92CF92DF92EF92F2
S1130D40FF920F931F93CF93DF936B017C0110925B
S1130D5098010E941D0D60933E0241E06EE372E033
S1130D608FE50E945E0B41E06EE372E081E60E9433
S1130D705E0BB09009010B2D10E0C0910701D0E08B
S1130D80B8016C1B7D0B072E000C880B990B0E947D
S1130D904E0D9B01AC01C701B6010E94FE0D8823D4
S1130DA0A4F0B8016C0F7D1F072E000C880B990B63
S1130DB00E944E0D9B01AC01C701B6010E94A60C16
S1130DC018161CF0B092980150C0B0900A010B2D77
S1130DD010E0B8016C1B7D0B072E000C880B990BDF
S1130DE00E944E0D9B01AC01C701B6010E94FE0D8D
S1130DF08823A4F0BE01600F711F072E000C880B1E
S1130E00990B0E944E0D9B01AC01C701B6010E94D3
S1130E10A60C18161CF0B092980127C0B0900B01D4
S1130E200B2D10E0B8016C1B7D0B072E000C880BFA
S1130E30990B0E944E0D9B01AC01C701B6010E94A3
S1130E40FE0D882394F0C00FD11FBE01DD0F880B67
S1130E50990B0E944E0D9B01AC01C701B6010E9483
S1130E60A60C181614F0B092980180919801811183
S1130E700E946304809134018823F9F090919801D1
S1130E80911118C01AC0E82FF0E0E050FF4F208104
S1130E9092130EC009C0891729F0E92FF0E0E25738
S1130EA0FE4F10829F5F01C090E09330A0F305C015
S1130EB08F5F01C080E0833030F3DF91CF911F91C9
S1130EC00F91FF90EF90DF90CF90BF9008954091E5
S1130ED00E0250910F0260911002709111028FEF77
S1130EE091E00E9496040895CF92DF92EF92FF92D0
S1130EF01F93CF93DF9380913401882309F43FC07B
S1130F00809133018823D9F1C0902F01D090300112
S1130F10E0903101F090320120E030E0A901C701F6
S1130F20B6010E94FE0D18163CF129C0C12FD0E075
S1130F30FE01EE0FFF1FEE0FFF1FED5DFE4F608100
S1130F40718182819381A70196010E94AB0C20E0FC
S1130F5030E04AEF53E40E94030E0E941D0DFE018F
S1130F60EE0FFF1FEF56FE4F71836083C257DE4FB3
S1130F7081E088831F5F01C010E01330B8F28091D4
S1130F809E01882381F080910E0290910F02A0911E
S1130F901002B09111028093A0019093A101A0933B
S1130FA0A201B093A3018BB180648BB9EEE3F2E0AC
S1130FB083E0808381E0818342E0BF018EE50E946B
S1130FC05E0B0E946707DF91CF911F91FF90EF9016
S1130FD0DF90CF900895FF920F931F93CF93DF93E9
S1130FE0C82F8B01D42F823509F043C0FB01F08058
S1130FF081818823C9F0F0FE06C06091360184E245
S113100092E00E94160CF1FE06C06091360180E465
S113101092E00E94160CF2FE26C06091360182E135
S113102092E00E94160C1FC0F0FE06C060910301FE
S113103084E292E00E94160CF1FE06C06091030166
S113104080E492E00E94160CF2FE06C06091030157
S113105082E192E00E94160C8091100180939B0122
S113106081E080939F014D2FB8018C2F0E945E0B6D
S113107002C00E945E0BDF91CF911F910F91FF90F0
S113108008951F920F920FB60F9211242F933F933E
S11310904F935F936F937F938F939F93AF93BF937C
S11310A0EF93FF9348EC50E060E070E084E292E05C
S11310B00E94510C48EC50E060E070E080E492E063
S11310C00E94510C48EC50E060E070E082E192E054
S11310D00E94510C80918D018F5F80938D018A3025
S11310E028F010928D018EB381608EBBFF91EF9139
S11310F0BF91AF919F918F917F916F915F914F912C
S11311003F912F910F900FBE0F901F9018951F9233
S11311100F920FB60F9211242F933F934F935F9327
S11311206F937F938F939F93AF93BF93EF93FF93AB
S113113040910E0250910F026091100270911102C1
S1131140405D5F4F6F4F7F4F40930E0250930F02ED
S113115060931002709311028FEF91E00E94B50426
S1131160FF91EF91BF91AF919F918F917F916F917B
S11311705F914F913F912F910F900FBE0F901F9051
S113118018951F920F920FB60F9211248F939F936D
S1131190AF93BF93EF93FF93EAE4F2E0A081B181B0
S11311A0828191E0980F9283A80FB11D8091C600AF
S11311B08C9392818481815089238283FF91EF9162
S11311C0BF91AF919F918F910F900FBE0F901F9081
S11311D01895EF92FF921F93CF93DF9300D0CDB772
S11311E0DEB78EB38E7F8EBB8091EA01882319F01F
S11311F0813071F010C08091A60181508093A601C6
S1131200811109C084E68093A60180E283B903C0FA
S113121085B1806285B98EE292E00E94720587EF03
S113122091E00E9472058CE192E00E94720586E3CF
S113123092E00E94720580919C0190919D0101961B
S113124090939D0180939C01209121013091220172
S11312508217930760F010929D0110929C011982ED
S113126040E0BE016F5F7F4F80EF0E945E0B809174
S1131270A4019091A50101969093A5018093A401E6
S113128080913401811140C043C0E12EF12CF7015B
S1131290E257FE4F80818823A9F1F701EE0FFF1F6B
S11312A0EF56FE4F80819181009761F10197F7011C
S11312B0EE0FFF1FEF56FE4F91838083892B11F5AC
S11312C0F701E257FE4F108281E090E0012E02C048
S11312D0880F991F0A94E2F789838A8342E0BE014A
S11312E06F5F7F4F82E50E94EB07F701EE0FFF1F50
S11312F0EE0FFF1FE551FE4F81E0808390910501C1
S1131300918382831F5F01C010E0133008F4BDCFC6
S113131080919F018823A1F080919B01882381F013
S1131320815080939B0181110BC010929F018FEF1C
S1131330898341E0BE016F5F7F4F82E50E946601B1
S11313400E9405010E94E0000F900F90DF91CF9161
S11313501F91FF90EF90089584B18A6384B984B19A
S11313608B7F84B98AB180688AB98AB180648AB96A
S113137084B1816084B98AB1837C8AB98BB18C636E
S11313808BB987B1816087B988B1816088B90895C4
S113139082E084BD91E397BD80936E0083E085BDB8
S11313A00895109280008AE0809381008FE590E098
S11313B0909389008093880082E080936F00089561
S11313C01092C50087E68093C40086E08093C20033
S11313D088E98093C1000895CF93DF9300D000D0B3
S11313E0CDB7DEB78DE08983E8E0F1E081818A83BF
S11313F082818B8383818C8344E0BE016F5F7F4F46
S113140080E50E9466010F900F900F900F90DF917E
S1131410CF910895F8940E94AF0A0E94B90081E028
S11314208093390186E691E00E94C40A87E697E03A
S11314300E94AF008BEE97E00E94AA008FEE95E029
S11314400E94B40085EE95E00E94A5000E94E00988
S11314500E94AC090E94C8090E94D1090E94EC09AB
S11314602CE936E04FED55E065ED75E08FEF91E046
S11314700E94740425EF35E044E757E067EB75E01C
S11314808EE292E00E945E0528E436E048E656E0EB
S11314906FEB75E087EF91E00E945E0522E536E090
S11314A049E756E066EC75E08CE192E00E945E0547
S11314B02DE536E04AE856E06EEC75E086E392E00E
S11314C00E945E0569E975E084E292E00E94FC0BEB
S11314D063EA75E080E492E00E94FC0B6DEA75E03B
S11314E082E192E00E94FC0B6091030184E292E0AD
S11314F00E94160C6091030180E492E00E94160C95
S11315006091030182E192E00E94160C789484E6D3
S11315108093A601F0990E94E908EAE4F2E093813D
S1131520828198130E94C90AE3EDF2E092818381DB
S1131530981781F38091C00085FFECCFA081B18121
S1131540838191E0980F9383A80FB11D8C918093B0
S1131550C60093818481815089238383DBCFEAE4AD
S1131560F2E089ED92E09183808380E884831382A2
S113157012821682E3EDF2E023E532E03183208328
S113158084831382128208959093A8018093A70103
S113159008958DC0EAE4F2E0A081B181838191E0F5
S11315A0980F9383A80FB11D2C919381848181504E
S11315B089238383E6818E2F90E08730910508F09C
S11315C076C0FC01EC5CFF4F0C94A60E253509F0A7
S11315D06EC0EAE4F2E081E08683208768C02E349E
S11315E041F4EAE4F2E082E08683808528272087BC
S11315F05EC0109250025BC0253441F4EAE4F2E08C
S113160083E0868380852827208751C0109250026A
S11316104EC0223541F4EAE4F2E084E0868380851A
S11316202827208744C01092500241C0EAE4F2E027
S1131630278380852827208785E086831092A90147
S113164036C02A3341F4EAE4F2E080852827208773
S113165086E086832CC01092500229C0EAE4F2E0AE
S11316609085922790878781823050F0E091A9017C
S113167031E03E0F3093A901F0E0E655FE4F2083A0
S1131680815080935102811112C091110EC0E091DA
S1131690A701F091A801309741F04091A901415070
S11316A06BEA71E08091AA01099510925002EAE474
S11316B0F2E09381828198136DCF0895CF93DF93E5
S11316C052E0540FE3EDF2E0A081B181928121E078
S11316D0290F2283A90FB11D95E59C932281948142
S11316E0915092239283A081B181928121E0290FAC
S11316F02283A90FB11D9EE49C9322819481915071
S113170092239283A081B181928121E0290F2283C7
S1131710A90FB11D95E49C93228194819150922349
S11317209283A081B181928121E0290F2283A90FA4
S1131730B11D92E59C93328124812150232322837D
S1131740A081B181928121E0290F2283A90FB11DCB
S11317505C9332812481215023232283A081B1818F
S1131760928121E0290F2283A90FB11D9AE39C9352
S11317703281248121502323228396E39527A0815B
S1131780B181228131E0320F3283A20FB11D8C93DB
S113179032812481215023232283892790E017C09A
S11317A0E3EDF2E0A081B181228131E0320F328396
S11317B0A20FB11DEB01C90FD11D28812C933281D9
S11317C02481215023232283288182279F5F941719
S11317D038F3E3EDF2E0A081B181928121E0290F99
S11317E02283A90FB11D8C93928184818150892316
S11317F08283DF91CF910895FC017183608380918E
S1131800110190911201A0911301B09114018283EE
S11318109383A483B583168217821086118661157B
S1131820710519F0FB0180E009950895CF92DF92CC
S1131830EF92FF92CF93DF93EC01653B08F064EBEA
S11318408091150190911601A0911701B091180192
S1131850C0901901D0901A01E0901B01F0901C0176
S11318609C01AD012C193D094E095F09A62FB0E07A
S11318700E94AC0E24EB30E040E050E00E94840E65
S1131880D701C601820F931FA41FB51F8A839B83B0
S1131890AC83BD83DF91CF91FF90EF90DF90CF9029
S11318A008950F931F93CF93DF93DC01ED91FC9187
S11318B0309709F446C0EC018E819F81A885B985D3
S11318C0480F591F6A1F7B1F4E835F836887798780
S11318D000911D0110911E0120911F0130912001E2
S11318E04017510762077307E0F0401B510B620B6E
S11318F0730B4E835F836887798781E009954E81F6
S11319005F81688579858A819B81AC81BD81481717
S113191059076A077B07A8F0E881F98180E00995F7
S113192010C00A811B812C813D8180179107A20779
S1131930B30738F4401751076207730710F080E0CB
S11319400995DF91CF911F910F9108950E94890D00
S113195008F481E008950E94BF0C0C94C40D0E9409
S1131960BD0D58F00E94B60D40F029F45F3F29F0F8
S11319700C94AD0D51110C94F80D0C94B30D0E9400
S1131980D50D68F39923B1F3552391F3951B550BAA
S1131990BB27AA2762177307840738F09F5F5F4F3E
S11319A0220F331F441FAA1FA9F335D00E2E3AF07D
S11319B0E0E832D091505040E695001CCAF72BD095
S11319C0FE2F29D0660F771F881FBB1F26173707E6
S11319D04807AB07B0E809F0BB0B802DBF01FF2718
S11319E093585F4F3AF09E3F510578F00C94AD0D3B
S11319F00C94F80D5F3FE4F3983ED4F38695779505
S1131A006795B795F7959F5FC9F7880F911D9695D0
S1131A10879597F90895E1E0660F771F881FBB1F2C
S1131A20621773078407BA0720F0621B730B840BD9
S1131A30BA0BEE1F88F7E09508950E94DD0D88F03B
S1131A409F5798F0B92F9927B751B0F0E1F0660F7E
S1131A50771F881F991F1AF0BA95C9F714C0B130BF
S1131A6091F00E94F70DB1E008950C94F70D672FE3
S1131A70782F8827B85F39F0B93FCCF386957795EE
S1131A806795B395D9F73EF49095809570956195D7
S1131A907F4F8F4F9F4F0895E89409C097FB3EF402
S1131AA090958095709561957F4F8F4F9F4F9923A7
S1131AB0A9F0F92F96E9BB279395F6958795779525
S1131AC06795B795F111F8CFFAF4BB0F11F460FFE5
S1131AD01BC06F5F7F4F8F4F9F4F16C0882311F03D
S1131AE096E911C0772321F09EE8872F762F05C051
S1131AF0662371F096E8862F70E060E02AF09A95EC
S1131B00660F771F881FDAF7880F9695879597F9E0
S1131B100895990F0008550FAA0BE0E8FEEF16167A
S1131B201706E807F907C0F012161306E407F507CD
S1131B3098F0621B730B840B950B39F40A2661F041
S1131B40232B242B252B21F408950A2609F4A140E4
S1131B50A6958FEF811D811D089597F99F6780E8F1
S1131B6070E060E008959FEF80EC089500240A94EB
S1131B701616170618060906089500240A94121664
S1131B801306140605060895092E0394000C11F497
S1131B90882352F0BB0F40F4BF2B11F460FF04C044
S1131BA06F5F7F4F8F4F9F4F089557FD9058440F9D
S1131BB0551F59F05F3F71F04795880F97FB991FA8
S1131BC061F09F3F79F08795089512161306140665
S1131BD0551FF2CF4695F1DF08C0161617061806F2
S1131BE0991FF1CF86957105610508940895E894CD
S1131BF0BB2766277727CB0197F908950E94890DA3
S1131C0008F48FEF08950E94160E0C94C40D0E94E0
S1131C10B60D38F00E94BD0D20F0952311F00C9400
S1131C20AD0D0C94B30D11240C94F80D0E94D50D38
S1131C3070F3959FC1F3950F50E0551F629FF0011B
S1131C40729FBB27F00DB11D639FAA27F00DB11D34
S1131C50AA1F649F6627B00DA11D661F829F2227BD
S1131C60B00DA11D621F739FB00DA11D621F839F44
S1131C70A00D611D221F749F3327A00D611D231F1A
S1131C80849F600D211D822F762F6A2F11249F5768
S1131C9050409AF0F1F088234AF0EE0FFF1FBB1F6B
S1131CA0661F771F881F91505040A9F79E3F51052A
S1131CB080F00C94AD0D0C94F80D5F3FE4F3983E66
S1131CC0D4F3869577956795B795F795E7959F5FD4
S1131CD0C1F7FE2B880F911D9695879597F9089566
S1131CE097FB072E16F4009407D077FD09D00E94C5
S1131CF0B70E07FC05D03EF4909581959F4F08954B
S1131D00709561957F4F0895A1E21A2EAA1BBB1B03
S1131D10FD010DC0AA1FBB1FEE1FFF1FA217B307B3
S1131D20E407F50720F0A21BB30BE40BF50B661FC9
S1131D30771F881F991F1A9469F76095709580958D
S1131D4090959B01AC01BD01CF010895EE0FFF1FDB
S1131D500590F491E02D09940E94CB0EA59F900D5F
S1131D60B49F900DA49F800D911D11240895AA1B6A
S1131D70BB1B51E107C0AA1FBB1FA617B70710F072
S1131D80A61BB70B881F991F5A95A9F780959095A4
S1131D90BC01CD010895A29FB001B39FC001A39FD0
S1131DA0700D811D1124911DB29F700D811D112490
S10B1DB0911D0895F894FFCF82
S1131DB80102035A7D7D0A0214100D0A320A307595
S1131DC896C00500006009000020020000204E00B3
S1131DD800C409000048430000C84300001644003A
S1091DE800F041010100BE
S9030000FC
